{
  "_format": "hh-sol-artifact-1",
  "contractName": "BarterXmarketPlace",
  "address": "0x8253807b471179779ad283235e476F34aE6CB3CE",
  "sourceName": "contracts/MarketPlace.sol",
  "abi": [
    {
      "inputs": [
        {
          "internalType": "address",
          "name": "_brtxToken",
          "type": "address"
        }
      ],
      "stateMutability": "nonpayable",
      "type": "constructor"
    },
    {
      "anonymous": false,
      "inputs": [
        {
          "indexed": false,
          "internalType": "uint256",
          "name": "orderId",
          "type": "uint256"
        }
      ],
      "name": "OrderDelivered",
      "type": "event"
    },
    {
      "anonymous": false,
      "inputs": [
        {
          "indexed": false,
          "internalType": "uint256",
          "name": "orderId",
          "type": "uint256"
        },
        {
          "indexed": false,
          "internalType": "uint256",
          "name": "amountPaid",
          "type": "uint256"
        }
      ],
      "name": "OrderPaid",
      "type": "event"
    },
    {
      "anonymous": false,
      "inputs": [
        {
          "indexed": false,
          "internalType": "uint256",
          "name": "orderId",
          "type": "uint256"
        },
        {
          "indexed": false,
          "internalType": "uint256",
          "name": "productId",
          "type": "uint256"
        },
        {
          "indexed": false,
          "internalType": "address",
          "name": "buyer",
          "type": "address"
        },
        {
          "indexed": false,
          "internalType": "address",
          "name": "seller",
          "type": "address"
        },
        {
          "indexed": false,
          "internalType": "bool",
          "name": "isPaid",
          "type": "bool"
        }
      ],
      "name": "OrderPlaced",
      "type": "event"
    },
    {
      "inputs": [
        {
          "internalType": "uint256",
          "name": "price",
          "type": "uint256"
        },
        {
          "internalType": "uint256",
          "name": "stock",
          "type": "uint256"
        },
        {
          "internalType": "bytes32",
          "name": "name",
          "type": "bytes32"
        },
        {
          "internalType": "bytes",
          "name": "image",
          "type": "bytes"
        },
        {
          "internalType": "bytes",
          "name": "description",
          "type": "bytes"
        },
        {
          "internalType": "bytes32",
          "name": "productType",
          "type": "bytes32"
        },
        {
          "internalType": "bytes32",
          "name": "condition",
          "type": "bytes32"
        }
      ],
      "name": "addProduct",
      "outputs": [
        {
          "internalType": "uint256",
          "name": "",
          "type": "uint256"
        }
      ],
      "stateMutability": "nonpayable",
      "type": "function"
    },
    {
      "inputs": [],
      "name": "brtx",
      "outputs": [
        {
          "internalType": "contract IERC20",
          "name": "",
          "type": "address"
        }
      ],
      "stateMutability": "view",
      "type": "function"
    },
    {
      "inputs": [
        {
          "internalType": "uint256",
          "name": "_id",
          "type": "uint256"
        },
        {
          "internalType": "bool",
          "name": "_isPrepaid",
          "type": "bool"
        }
      ],
      "name": "buyProduct",
      "outputs": [],
      "stateMutability": "nonpayable",
      "type": "function"
    },
    {
      "inputs": [
        {
          "internalType": "uint256",
          "name": "_orderId",
          "type": "uint256"
        }
      ],
      "name": "cancelOrder",
      "outputs": [],
      "stateMutability": "nonpayable",
      "type": "function"
    },
    {
      "inputs": [
        {
          "internalType": "uint256",
          "name": "_orderId",
          "type": "uint256"
        }
      ],
      "name": "confirmDelivery",
      "outputs": [],
      "stateMutability": "nonpayable",
      "type": "function"
    },
    {
      "inputs": [],
      "name": "orderCount",
      "outputs": [
        {
          "internalType": "uint256",
          "name": "",
          "type": "uint256"
        }
      ],
      "stateMutability": "view",
      "type": "function"
    },
    {
      "inputs": [
        {
          "internalType": "uint256",
          "name": "",
          "type": "uint256"
        }
      ],
      "name": "orders",
      "outputs": [
        {
          "internalType": "uint256",
          "name": "productId",
          "type": "uint256"
        },
        {
          "internalType": "uint256",
          "name": "amountPaid",
          "type": "uint256"
        },
        {
          "internalType": "address",
          "name": "buyer",
          "type": "address"
        },
        {
          "internalType": "address",
          "name": "seller",
          "type": "address"
        },
        {
          "internalType": "bool",
          "name": "isPaid",
          "type": "bool"
        },
        {
          "internalType": "bool",
          "name": "isDelivered",
          "type": "bool"
        }
      ],
      "stateMutability": "view",
      "type": "function"
    },
    {
      "inputs": [],
      "name": "productCount",
      "outputs": [
        {
          "internalType": "uint256",
          "name": "",
          "type": "uint256"
        }
      ],
      "stateMutability": "view",
      "type": "function"
    },
    {
      "inputs": [
        {
          "internalType": "uint256",
          "name": "",
          "type": "uint256"
        }
      ],
      "name": "store",
      "outputs": [
        {
          "internalType": "uint256",
          "name": "price",
          "type": "uint256"
        },
        {
          "internalType": "uint256",
          "name": "stock",
          "type": "uint256"
        },
        {
          "internalType": "bytes32",
          "name": "name",
          "type": "bytes32"
        },
        {
          "internalType": "bytes",
          "name": "description",
          "type": "bytes"
        },
        {
          "internalType": "bytes",
          "name": "image",
          "type": "bytes"
        },
        {
          "internalType": "bytes32",
          "name": "productType",
          "type": "bytes32"
        },
        {
          "internalType": "bytes32",
          "name": "condition",
          "type": "bytes32"
        },
        {
          "internalType": "address",
          "name": "seller",
          "type": "address"
        }
      ],
      "stateMutability": "view",
      "type": "function"
    }
  ],
  "bytecode": "0x60a06040526001600255600160035534801561001a57600080fd5b506040516121a13803806121a1833981810160405281019061003c9190610148565b600073ffffffffffffffffffffffffffffffffffffffff168173ffffffffffffffffffffffffffffffffffffffff16036100ab576040517f08c379a00000000000000000000000000000000000000000000000000000000081526004016100a2906101d2565b60405180910390fd5b8073ffffffffffffffffffffffffffffffffffffffff1660808173ffffffffffffffffffffffffffffffffffffffff1681525050506101f2565b600080fd5b600073ffffffffffffffffffffffffffffffffffffffff82169050919050565b6000610115826100ea565b9050919050565b6101258161010a565b811461013057600080fd5b50565b6000815190506101428161011c565b92915050565b60006020828403121561015e5761015d6100e5565b5b600061016c84828501610133565b91505092915050565b600082825260208201905092915050565b7f496e76616c6964204252545820546f6b656e2041646472657373000000000000600082015250565b60006101bc601a83610175565b91506101c782610186565b602082019050919050565b600060208201905081810360008301526101eb816101af565b9050919050565b608051611f7f610222600039600081816102fc01528181610673015281816107500152610cae0152611f7f6000f3fe608060405234801561001057600080fd5b50600436106100935760003560e01c8063a85c38ef11610066578063a85c38ef14610125578063b38d34711461015a578063cc86bb4814610178578063e0f6ef87146101a8578063fd84cb97146101c657610093565b80632453ffa814610098578063514fcac7146100b65780636057361d146100d257806386970e5514610109575b600080fd5b6100a06101e2565b6040516100ad9190611044565b60405180910390f35b6100d060048036038101906100cb919061109f565b6101e8565b005b6100ec60048036038101906100e7919061109f565b61047c565b6040516101009897969594939291906111b6565b60405180910390f35b610123600480360381019061011e919061127a565b6105f4565b005b61013f600480360381019061013a919061109f565b610c16565b604051610151969594939291906112c9565b60405180910390f35b610162610cac565b60405161016f9190611389565b60405180910390f35b610192600480360381019061018d9190611505565b610cd0565b60405161019f9190611044565b60405180910390f35b6101b0610e81565b6040516101bd9190611044565b60405180910390f35b6101e060048036038101906101db919061109f565b610e87565b005b60035481565b60006001600083815260200190815260200160002090508060030160159054906101000a900460ff1615610251576040517f08c379a00000000000000000000000000000000000000000000000000000000081526004016102489061163c565b60405180910390fd5b3373ffffffffffffffffffffffffffffffffffffffff168160020160009054906101000a900473ffffffffffffffffffffffffffffffffffffffff1673ffffffffffffffffffffffffffffffffffffffff16146102e3576040517f08c379a00000000000000000000000000000000000000000000000000000000081526004016102da906116a8565b60405180910390fd5b8060030160149054906101000a900460ff16156103dc577f000000000000000000000000000000000000000000000000000000000000000073ffffffffffffffffffffffffffffffffffffffff1663a9059cbb3383600101546040518363ffffffff1660e01b81526004016103599291906116c8565b6020604051808303816000875af1158015610378573d6000803e3d6000fd5b505050506040513d601f19601f8201168201806040525081019061039c9190611706565b6103db576040517f08c379a00000000000000000000000000000000000000000000000000000000081526004016103d29061177f565b60405180910390fd5b5b6001600083815260200190815260200160002060008082016000905560018201600090556002820160006101000a81549073ffffffffffffffffffffffffffffffffffffffff02191690556003820160006101000a81549073ffffffffffffffffffffffffffffffffffffffff02191690556003820160146101000a81549060ff02191690556003820160156101000a81549060ff021916905550505050565b60006020528060005260406000206000915090508060000154908060010154908060020154908060030180546104b1906117ce565b80601f01602080910402602001604051908101604052809291908181526020018280546104dd906117ce565b801561052a5780601f106104ff5761010080835404028352916020019161052a565b820191906000526020600020905b81548152906001019060200180831161050d57829003601f168201915b50505050509080600401805461053f906117ce565b80601f016020809104026020016040519081016040528092919081815260200182805461056b906117ce565b80156105b85780601f1061058d576101008083540402835291602001916105b8565b820191906000526020600020905b81548152906001019060200180831161059b57829003601f168201915b5050505050908060050154908060060154908060070160009054906101000a900473ffffffffffffffffffffffffffffffffffffffff16905088565b600080600084815260200190815260200160002090506000816001015411610651576040517f08c379a00000000000000000000000000000000000000000000000000000000081526004016106489061184b565b60405180910390fd5b6000600360008154809291906001019190505590508215610a165781600001547f000000000000000000000000000000000000000000000000000000000000000073ffffffffffffffffffffffffffffffffffffffff1663dd62ed3e33306040518363ffffffff1660e01b81526004016106cc92919061186b565b602060405180830381865afa1580156106e9573d6000803e3d6000fd5b505050506040513d601f19601f8201168201806040525081019061070d91906118a9565b101561074e576040517f08c379a000000000000000000000000000000000000000000000000000000000815260040161074590611922565b60405180910390fd5b7f000000000000000000000000000000000000000000000000000000000000000073ffffffffffffffffffffffffffffffffffffffff166323b872dd338460070160009054906101000a900473ffffffffffffffffffffffffffffffffffffffff1685600001546040518463ffffffff1660e01b81526004016107d393929190611942565b6020604051808303816000875af11580156107f2573d6000803e3d6000fd5b505050506040513d601f19601f820116820180604052508101906108169190611706565b610855576040517f08c379a000000000000000000000000000000000000000000000000000000000815260040161084c906119c5565b60405180910390fd5b6040518060c00160405280858152602001836000015481526020013373ffffffffffffffffffffffffffffffffffffffff1681526020018360070160009054906101000a900473ffffffffffffffffffffffffffffffffffffffff1673ffffffffffffffffffffffffffffffffffffffff1681526020016001151581526020016000151581525060016000838152602001908152602001600020600082015181600001556020820151816001015560408201518160020160006101000a81548173ffffffffffffffffffffffffffffffffffffffff021916908373ffffffffffffffffffffffffffffffffffffffff16021790555060608201518160030160006101000a81548173ffffffffffffffffffffffffffffffffffffffff021916908373ffffffffffffffffffffffffffffffffffffffff16021790555060808201518160030160146101000a81548160ff02191690831515021790555060a08201518160030160156101000a81548160ff0219169083151502179055509050507f7c32ca00142334d942c919d338fa31921d5108c316aebd0347bcda69ee8167c9818360000154604051610a099291906119e5565b60405180910390a1610b93565b6040518060c00160405280858152602001600081526020013373ffffffffffffffffffffffffffffffffffffffff1681526020018360070160009054906101000a900473ffffffffffffffffffffffffffffffffffffffff1673ffffffffffffffffffffffffffffffffffffffff1681526020016000151581526020016000151581525060016000838152602001908152602001600020600082015181600001556020820151816001015560408201518160020160006101000a81548173ffffffffffffffffffffffffffffffffffffffff021916908373ffffffffffffffffffffffffffffffffffffffff16021790555060608201518160030160006101000a81548173ffffffffffffffffffffffffffffffffffffffff021916908373ffffffffffffffffffffffffffffffffffffffff16021790555060808201518160030160146101000a81548160ff02191690831515021790555060a08201518160030160156101000a81548160ff0219169083151502179055509050505b816001016000815480929190610ba890611a3d565b91905055507f64156f76536e4f3aaa5ca6746dfbe8d60ee46607c88f03afd22201d9a3eabc418185338560070160009054906101000a900473ffffffffffffffffffffffffffffffffffffffff1687604051610c08959493929190611a66565b60405180910390a150505050565b60016020528060005260406000206000915090508060000154908060010154908060020160009054906101000a900473ffffffffffffffffffffffffffffffffffffffff16908060030160009054906101000a900473ffffffffffffffffffffffffffffffffffffffff16908060030160149054906101000a900460ff16908060030160159054906101000a900460ff16905086565b7f000000000000000000000000000000000000000000000000000000000000000081565b6000808811610d14576040517f08c379a0000000000000000000000000000000000000000000000000000000008152600401610d0b90611b05565b60405180910390fd5b60008711610d57576040517f08c379a0000000000000000000000000000000000000000000000000000000008152600401610d4e90611b71565b60405180910390fd5b6040518061010001604052808981526020018881526020018781526020018581526020018681526020018481526020018381526020013373ffffffffffffffffffffffffffffffffffffffff1681525060008060025481526020019081526020016000206000820151816000015560208201518160010155604082015181600201556060820151816003019081610dee9190611d33565b506080820151816004019081610e049190611d33565b5060a0820151816005015560c0820151816006015560e08201518160070160006101000a81548173ffffffffffffffffffffffffffffffffffffffff021916908373ffffffffffffffffffffffffffffffffffffffff16021790555090505060026000815480929190600101919050559050979650505050505050565b60025481565b60006001600083815260200190815260200160002090508060030160149054906101000a900460ff16610eef576040517f08c379a0000000000000000000000000000000000000000000000000000000008152600401610ee690611e51565b60405180910390fd5b8060030160159054906101000a900460ff1615610f41576040517f08c379a0000000000000000000000000000000000000000000000000000000008152600401610f3890611ebd565b60405180910390fd5b8060030160009054906101000a900473ffffffffffffffffffffffffffffffffffffffff1673ffffffffffffffffffffffffffffffffffffffff163373ffffffffffffffffffffffffffffffffffffffff1614610fd3576040517f08c379a0000000000000000000000000000000000000000000000000000000008152600401610fca90611f29565b60405180910390fd5b60018160030160156101000a81548160ff0219169083151502179055507fe21fe02c1589242b30be2057f54fd54b7ddc463695d19ffdb54f9ebb0584f24a8260405161101f9190611044565b60405180910390a15050565b6000819050919050565b61103e8161102b565b82525050565b60006020820190506110596000830184611035565b92915050565b6000604051905090565b600080fd5b600080fd5b61107c8161102b565b811461108757600080fd5b50565b60008135905061109981611073565b92915050565b6000602082840312156110b5576110b4611069565b5b60006110c38482850161108a565b91505092915050565b6000819050919050565b6110df816110cc565b82525050565b600081519050919050565b600082825260208201905092915050565b60005b8381101561111f578082015181840152602081019050611104565b60008484015250505050565b6000601f19601f8301169050919050565b6000611147826110e5565b61115181856110f0565b9350611161818560208601611101565b61116a8161112b565b840191505092915050565b600073ffffffffffffffffffffffffffffffffffffffff82169050919050565b60006111a082611175565b9050919050565b6111b081611195565b82525050565b6000610100820190506111cc600083018b611035565b6111d9602083018a611035565b6111e660408301896110d6565b81810360608301526111f8818861113c565b9050818103608083015261120c818761113c565b905061121b60a08301866110d6565b61122860c08301856110d6565b61123560e08301846111a7565b9998505050505050505050565b60008115159050919050565b61125781611242565b811461126257600080fd5b50565b6000813590506112748161124e565b92915050565b6000806040838503121561129157611290611069565b5b600061129f8582860161108a565b92505060206112b085828601611265565b9150509250929050565b6112c381611242565b82525050565b600060c0820190506112de6000830189611035565b6112eb6020830188611035565b6112f860408301876111a7565b61130560608301866111a7565b61131260808301856112ba565b61131f60a08301846112ba565b979650505050505050565b6000819050919050565b600061134f61134a61134584611175565b61132a565b611175565b9050919050565b600061136182611334565b9050919050565b600061137382611356565b9050919050565b61138381611368565b82525050565b600060208201905061139e600083018461137a565b92915050565b6113ad816110cc565b81146113b857600080fd5b50565b6000813590506113ca816113a4565b92915050565b600080fd5b600080fd5b7f4e487b7100000000000000000000000000000000000000000000000000000000600052604160045260246000fd5b6114128261112b565b810181811067ffffffffffffffff82111715611431576114306113da565b5b80604052505050565b600061144461105f565b90506114508282611409565b919050565b600067ffffffffffffffff8211156114705761146f6113da565b5b6114798261112b565b9050602081019050919050565b82818337600083830152505050565b60006114a86114a384611455565b61143a565b9050828152602081018484840111156114c4576114c36113d5565b5b6114cf848285611486565b509392505050565b600082601f8301126114ec576114eb6113d0565b5b81356114fc848260208601611495565b91505092915050565b600080600080600080600060e0888a03121561152457611523611069565b5b60006115328a828b0161108a565b97505060206115438a828b0161108a565b96505060406115548a828b016113bb565b955050606088013567ffffffffffffffff8111156115755761157461106e565b5b6115818a828b016114d7565b945050608088013567ffffffffffffffff8111156115a2576115a161106e565b5b6115ae8a828b016114d7565b93505060a06115bf8a828b016113bb565b92505060c06115d08a828b016113bb565b91505092959891949750929550565b600082825260208201905092915050565b7f4f7264657220616c72656164792064656c697665726564000000000000000000600082015250565b60006116266017836115df565b9150611631826115f0565b602082019050919050565b6000602082019050818103600083015261165581611619565b9050919050565b7f4e6f742074686520627579657200000000000000000000000000000000000000600082015250565b6000611692600d836115df565b915061169d8261165c565b602082019050919050565b600060208201905081810360008301526116c181611685565b9050919050565b60006040820190506116dd60008301856111a7565b6116ea6020830184611035565b9392505050565b6000815190506117008161124e565b92915050565b60006020828403121561171c5761171b611069565b5b600061172a848285016116f1565b91505092915050565b7f526566756e64206661696c656400000000000000000000000000000000000000600082015250565b6000611769600d836115df565b915061177482611733565b602082019050919050565b600060208201905081810360008301526117988161175c565b9050919050565b7f4e487b7100000000000000000000000000000000000000000000000000000000600052602260045260246000fd5b600060028204905060018216806117e657607f821691505b6020821081036117f9576117f861179f565b5b50919050565b7f4f7574206f662073746f636b0000000000000000000000000000000000000000600082015250565b6000611835600c836115df565b9150611840826117ff565b602082019050919050565b6000602082019050818103600083015261186481611828565b9050919050565b600060408201905061188060008301856111a7565b61188d60208301846111a7565b9392505050565b6000815190506118a381611073565b92915050565b6000602082840312156118bf576118be611069565b5b60006118cd84828501611894565b91505092915050565b7f416c6c6f77616e636520746f6f206c6f77000000000000000000000000000000600082015250565b600061190c6011836115df565b9150611917826118d6565b602082019050919050565b6000602082019050818103600083015261193b816118ff565b9050919050565b600060608201905061195760008301866111a7565b61196460208301856111a7565b6119716040830184611035565b949350505050565b7f5472616e73666572206661696c65640000000000000000000000000000000000600082015250565b60006119af600f836115df565b91506119ba82611979565b602082019050919050565b600060208201905081810360008301526119de816119a2565b9050919050565b60006040820190506119fa6000830185611035565b611a076020830184611035565b9392505050565b7f4e487b7100000000000000000000000000000000000000000000000000000000600052601160045260246000fd5b6000611a488261102b565b915060008203611a5b57611a5a611a0e565b5b600182039050919050565b600060a082019050611a7b6000830188611035565b611a886020830187611035565b611a9560408301866111a7565b611aa260608301856111a7565b611aaf60808301846112ba565b9695505050505050565b7f5072696365206d7573742062652067726561746572207468616e203000000000600082015250565b6000611aef601c836115df565b9150611afa82611ab9565b602082019050919050565b60006020820190508181036000830152611b1e81611ae2565b9050919050565b7f53746f636b206d7573742062652067726561746572207468616e203000000000600082015250565b6000611b5b601c836115df565b9150611b6682611b25565b602082019050919050565b60006020820190508181036000830152611b8a81611b4e565b9050919050565b60008190508160005260206000209050919050565b60006020601f8301049050919050565b600082821b905092915050565b600060088302611bf37fffffffffffffffffffffffffffffffffffffffffffffffffffffffffffffffff82611bb6565b611bfd8683611bb6565b95508019841693508086168417925050509392505050565b6000611c30611c2b611c268461102b565b61132a565b61102b565b9050919050565b6000819050919050565b611c4a83611c15565b611c5e611c5682611c37565b848454611bc3565b825550505050565b600090565b611c73611c66565b611c7e818484611c41565b505050565b5b81811015611ca257611c97600082611c6b565b600181019050611c84565b5050565b601f821115611ce757611cb881611b91565b611cc184611ba6565b81016020851015611cd0578190505b611ce4611cdc85611ba6565b830182611c83565b50505b505050565b600082821c905092915050565b6000611d0a60001984600802611cec565b1980831691505092915050565b6000611d238383611cf9565b9150826002028217905092915050565b611d3c826110e5565b67ffffffffffffffff811115611d5557611d546113da565b5b611d5f82546117ce565b611d6a828285611ca6565b600060209050601f831160018114611d9d5760008415611d8b578287015190505b611d958582611d17565b865550611dfd565b601f198416611dab86611b91565b60005b82811015611dd357848901518255600182019150602085019450602081019050611dae565b86831015611df05784890151611dec601f891682611cf9565b8355505b6001600288020188555050505b505050505050565b7f5061796d656e74206e6f74207265636569766564207965740000000000000000600082015250565b6000611e3b6018836115df565b9150611e4682611e05565b602082019050919050565b60006020820190508181036000830152611e6a81611e2e565b9050919050565b7f416c72656164792064656c697665726564000000000000000000000000000000600082015250565b6000611ea76011836115df565b9150611eb282611e71565b602082019050919050565b60006020820190508181036000830152611ed681611e9a565b9050919050565b7f4e6f74207468652073656c6c6572000000000000000000000000000000000000600082015250565b6000611f13600e836115df565b9150611f1e82611edd565b602082019050919050565b60006020820190508181036000830152611f4281611f06565b905091905056fea2646970667358221220864b72c5b9f963b11ab2eb3f4a6a37ff9b35554f6fd0fe7d00df82b40baca9f064736f6c634300081c0033",
  "linkReferences": {},
  "deployedLinkReferences": {}
}