{
  "_format": "hh-sol-artifact-1",
  "contractName": "NFTManager",
  "address": "0x4238D6a6f740d84827b80d5c1e9984907e415c6f",
  "sourceName": "contracts/AddressTransfer.sol",
  "abi": [
    {
      "inputs": [
        {
          "internalType": "address",
          "name": "_brtxToken",
          "type": "address"
        }
      ],
      "stateMutability": "nonpayable",
      "type": "constructor"
    },
    {
      "inputs": [
        {
          "internalType": "address",
          "name": "owner",
          "type": "address"
        }
      ],
      "name": "OwnableInvalidOwner",
      "type": "error"
    },
    {
      "inputs": [
        {
          "internalType": "address",
          "name": "account",
          "type": "address"
        }
      ],
      "name": "OwnableUnauthorizedAccount",
      "type": "error"
    },
    {
      "anonymous": false,
      "inputs": [
        {
          "indexed": true,
          "internalType": "address",
          "name": "user",
          "type": "address"
        },
        {
          "indexed": false,
          "internalType": "uint256",
          "name": "amount",
          "type": "uint256"
        }
      ],
      "name": "BRTXMinted",
      "type": "event"
    },
    {
      "anonymous": false,
      "inputs": [
        {
          "indexed": true,
          "internalType": "address",
          "name": "user",
          "type": "address"
        },
        {
          "indexed": true,
          "internalType": "address",
          "name": "nftContract",
          "type": "address"
        },
        {
          "indexed": true,
          "internalType": "uint256",
          "name": "tokenId",
          "type": "uint256"
        }
      ],
      "name": "NFTDeposited",
      "type": "event"
    },
    {
      "anonymous": false,
      "inputs": [
        {
          "indexed": true,
          "internalType": "address",
          "name": "to",
          "type": "address"
        },
        {
          "indexed": true,
          "internalType": "uint256",
          "name": "tokenId",
          "type": "uint256"
        }
      ],
      "name": "NFTWithdrawn",
      "type": "event"
    },
    {
      "anonymous": false,
      "inputs": [
        {
          "indexed": true,
          "internalType": "address",
          "name": "previousOwner",
          "type": "address"
        },
        {
          "indexed": true,
          "internalType": "address",
          "name": "newOwner",
          "type": "address"
        }
      ],
      "name": "OwnershipTransferred",
      "type": "event"
    },
    {
      "inputs": [],
      "name": "brtx",
      "outputs": [
        {
          "internalType": "contract IERC20",
          "name": "",
          "type": "address"
        }
      ],
      "stateMutability": "view",
      "type": "function"
    },
    {
      "inputs": [
        {
          "internalType": "address",
          "name": "nftContract",
          "type": "address"
        },
        {
          "internalType": "uint256",
          "name": "tokenId",
          "type": "uint256"
        },
        {
          "internalType": "uint256",
          "name": "brtxAmount",
          "type": "uint256"
        }
      ],
      "name": "depositNFT",
      "outputs": [],
      "stateMutability": "nonpayable",
      "type": "function"
    },
    {
      "inputs": [
        {
          "internalType": "uint256",
          "name": "",
          "type": "uint256"
        }
      ],
      "name": "nftContracts",
      "outputs": [
        {
          "internalType": "address",
          "name": "",
          "type": "address"
        }
      ],
      "stateMutability": "view",
      "type": "function"
    },
    {
      "inputs": [
        {
          "internalType": "address",
          "name": "",
          "type": "address"
        },
        {
          "internalType": "address",
          "name": "",
          "type": "address"
        },
        {
          "internalType": "uint256",
          "name": "",
          "type": "uint256"
        },
        {
          "internalType": "bytes",
          "name": "",
          "type": "bytes"
        }
      ],
      "name": "onERC721Received",
      "outputs": [
        {
          "internalType": "bytes4",
          "name": "",
          "type": "bytes4"
        }
      ],
      "stateMutability": "pure",
      "type": "function"
    },
    {
      "inputs": [
        {
          "internalType": "uint256",
          "name": "",
          "type": "uint256"
        }
      ],
      "name": "originalOwners",
      "outputs": [
        {
          "internalType": "address",
          "name": "",
          "type": "address"
        }
      ],
      "stateMutability": "view",
      "type": "function"
    },
    {
      "inputs": [],
      "name": "owner",
      "outputs": [
        {
          "internalType": "address",
          "name": "",
          "type": "address"
        }
      ],
      "stateMutability": "view",
      "type": "function"
    },
    {
      "inputs": [],
      "name": "renounceOwnership",
      "outputs": [],
      "stateMutability": "nonpayable",
      "type": "function"
    },
    {
      "inputs": [
        {
          "internalType": "address",
          "name": "newOwner",
          "type": "address"
        }
      ],
      "name": "transferOwnership",
      "outputs": [],
      "stateMutability": "nonpayable",
      "type": "function"
    },
    {
      "inputs": [
        {
          "internalType": "uint256",
          "name": "tokenId",
          "type": "uint256"
        }
      ],
      "name": "userWithdraw",
      "outputs": [],
      "stateMutability": "nonpayable",
      "type": "function"
    },
    {
      "inputs": [
        {
          "internalType": "uint256",
          "name": "tokenId",
          "type": "uint256"
        }
      ],
      "name": "withdrawToDeployer",
      "outputs": [],
      "stateMutability": "nonpayable",
      "type": "function"
    }
  ],
  "bytecode": "0x60a060405234801561001057600080fd5b506040516115f13803806115f183398181016040528101906100329190610285565b33600073ffffffffffffffffffffffffffffffffffffffff168173ffffffffffffffffffffffffffffffffffffffff16036100a55760006040517f1e4fbdf700000000000000000000000000000000000000000000000000000000815260040161009c91906102c1565b60405180910390fd5b6100b48161015e60201b60201c565b50600073ffffffffffffffffffffffffffffffffffffffff168173ffffffffffffffffffffffffffffffffffffffff1603610124576040517f08c379a000000000000000000000000000000000000000000000000000000000815260040161011b90610339565b60405180910390fd5b8073ffffffffffffffffffffffffffffffffffffffff1660808173ffffffffffffffffffffffffffffffffffffffff168152505050610359565b60008060009054906101000a900473ffffffffffffffffffffffffffffffffffffffff169050816000806101000a81548173ffffffffffffffffffffffffffffffffffffffff021916908373ffffffffffffffffffffffffffffffffffffffff1602179055508173ffffffffffffffffffffffffffffffffffffffff168173ffffffffffffffffffffffffffffffffffffffff167f8be0079c531659141344cd1fd0a4f28419497f9722a3daafe3b4186f6b6457e060405160405180910390a35050565b600080fd5b600073ffffffffffffffffffffffffffffffffffffffff82169050919050565b600061025282610227565b9050919050565b61026281610247565b811461026d57600080fd5b50565b60008151905061027f81610259565b92915050565b60006020828403121561029b5761029a610222565b5b60006102a984828501610270565b91505092915050565b6102bb81610247565b82525050565b60006020820190506102d660008301846102b2565b92915050565b600082825260208201905092915050565b7f496e76616c696420425254582061646472657373000000000000000000000000600082015250565b60006103236014836102dc565b915061032e826102ed565b602082019050919050565b6000602082019050818103600083015261035281610316565b9050919050565b60805161127661037b6000396000818161076d01526109f801526112766000f3fe608060405234801561001057600080fd5b506004361061009e5760003560e01c806372a8ccb41161006657806372a8ccb4146101595780638da5cb5b14610175578063a061f79714610193578063b38d3471146101af578063f2fde38b146101cd5761009e565b80630bb4d82a146100a3578063150b7a02146100d35780631ade0a3b146101035780633b9056bf14610133578063715018a61461014f575b600080fd5b6100bd60048036038101906100b89190610c33565b6101e9565b6040516100ca9190610ca1565b60405180910390f35b6100ed60048036038101906100e89190610d4d565b61021c565b6040516100fa9190610e10565b60405180910390f35b61011d60048036038101906101189190610c33565b610231565b60405161012a9190610ca1565b60405180910390f35b61014d60048036038101906101489190610c33565b610264565b005b6101576103ee565b005b610173600480360381019061016e9190610e2b565b610402565b005b61017d610859565b60405161018a9190610ca1565b60405180910390f35b6101ad60048036038101906101a89190610c33565b610882565b005b6101b76109f6565b6040516101c49190610edd565b60405180910390f35b6101e760048036038101906101e29190610ef8565b610a1a565b005b60016020528060005260406000206000915054906101000a900473ffffffffffffffffffffffffffffffffffffffff1681565b600063150b7a0260e01b905095945050505050565b60026020528060005260406000206000915054906101000a900473ffffffffffffffffffffffffffffffffffffffff1681565b3373ffffffffffffffffffffffffffffffffffffffff166002600083815260200190815260200160002060009054906101000a900473ffffffffffffffffffffffffffffffffffffffff1673ffffffffffffffffffffffffffffffffffffffff1614610305576040517f08c379a00000000000000000000000000000000000000000000000000000000081526004016102fc90610f82565b60405180910390fd5b6001600082815260200190815260200160002060009054906101000a900473ffffffffffffffffffffffffffffffffffffffff1673ffffffffffffffffffffffffffffffffffffffff166342842e0e3033846040518463ffffffff1660e01b815260040161037593929190610fb1565b600060405180830381600087803b15801561038f57600080fd5b505af11580156103a3573d6000803e3d6000fd5b50505050803373ffffffffffffffffffffffffffffffffffffffff167f2aa1b4c95f3b2da9c955947fca584743ea0d457708fadf209c093061e98c4ccb60405160405180910390a350565b6103f6610aa0565b6104006000610b27565b565b60008390503373ffffffffffffffffffffffffffffffffffffffff168173ffffffffffffffffffffffffffffffffffffffff16636352211e856040518263ffffffff1660e01b81526004016104579190610fe8565b602060405180830381865afa158015610474573d6000803e3d6000fd5b505050506040513d601f19601f820116820180604052508101906104989190611018565b73ffffffffffffffffffffffffffffffffffffffff16146104ee576040517f08c379a00000000000000000000000000000000000000000000000000000000081526004016104e590611091565b60405180910390fd5b3073ffffffffffffffffffffffffffffffffffffffff168173ffffffffffffffffffffffffffffffffffffffff1663081812fc856040518263ffffffff1660e01b815260040161053e9190610fe8565b602060405180830381865afa15801561055b573d6000803e3d6000fd5b505050506040513d601f19601f8201168201806040525081019061057f9190611018565b73ffffffffffffffffffffffffffffffffffffffff16148061061957508073ffffffffffffffffffffffffffffffffffffffff1663e985e9c533306040518363ffffffff1660e01b81526004016105d79291906110b1565b602060405180830381865afa1580156105f4573d6000803e3d6000fd5b505050506040513d601f19601f820116820180604052508101906106189190611112565b5b610658576040517f08c379a000000000000000000000000000000000000000000000000000000000815260040161064f9061118b565b60405180910390fd5b336002600085815260200190815260200160002060006101000a81548173ffffffffffffffffffffffffffffffffffffffff021916908373ffffffffffffffffffffffffffffffffffffffff160217905550836001600085815260200190815260200160002060006101000a81548173ffffffffffffffffffffffffffffffffffffffff021916908373ffffffffffffffffffffffffffffffffffffffff1602179055508073ffffffffffffffffffffffffffffffffffffffff166342842e0e3330866040518463ffffffff1660e01b815260040161073993929190610fb1565b600060405180830381600087803b15801561075357600080fd5b505af1158015610767573d6000803e3d6000fd5b505050507f000000000000000000000000000000000000000000000000000000000000000073ffffffffffffffffffffffffffffffffffffffff166340c10f1933846040518363ffffffff1660e01b81526004016107c69291906111ab565b600060405180830381600087803b1580156107e057600080fd5b505af11580156107f4573d6000803e3d6000fd5b50505050828473ffffffffffffffffffffffffffffffffffffffff163373ffffffffffffffffffffffffffffffffffffffff167f2214288c094665e4969e2968c71e56e0ab3c69646a5c773ec8c2a7ca3bf1880860405160405180910390a450505050565b60008060009054906101000a900473ffffffffffffffffffffffffffffffffffffffff16905090565b61088a610aa0565b60006001600083815260200190815260200160002060009054906101000a900473ffffffffffffffffffffffffffffffffffffffff169050600073ffffffffffffffffffffffffffffffffffffffff168173ffffffffffffffffffffffffffffffffffffffff1603610931576040517f08c379a000000000000000000000000000000000000000000000000000000000815260040161092890611220565b60405180910390fd5b8073ffffffffffffffffffffffffffffffffffffffff166342842e0e30610956610859565b856040518463ffffffff1660e01b815260040161097593929190610fb1565b600060405180830381600087803b15801561098f57600080fd5b505af11580156109a3573d6000803e3d6000fd5b50505050816109b0610859565b73ffffffffffffffffffffffffffffffffffffffff167f2aa1b4c95f3b2da9c955947fca584743ea0d457708fadf209c093061e98c4ccb60405160405180910390a35050565b7f000000000000000000000000000000000000000000000000000000000000000081565b610a22610aa0565b600073ffffffffffffffffffffffffffffffffffffffff168173ffffffffffffffffffffffffffffffffffffffff1603610a945760006040517f1e4fbdf7000000000000000000000000000000000000000000000000000000008152600401610a8b9190610ca1565b60405180910390fd5b610a9d81610b27565b50565b610aa8610beb565b73ffffffffffffffffffffffffffffffffffffffff16610ac6610859565b73ffffffffffffffffffffffffffffffffffffffff1614610b2557610ae9610beb565b6040517f118cdaa7000000000000000000000000000000000000000000000000000000008152600401610b1c9190610ca1565b60405180910390fd5b565b60008060009054906101000a900473ffffffffffffffffffffffffffffffffffffffff169050816000806101000a81548173ffffffffffffffffffffffffffffffffffffffff021916908373ffffffffffffffffffffffffffffffffffffffff1602179055508173ffffffffffffffffffffffffffffffffffffffff168173ffffffffffffffffffffffffffffffffffffffff167f8be0079c531659141344cd1fd0a4f28419497f9722a3daafe3b4186f6b6457e060405160405180910390a35050565b600033905090565b600080fd5b600080fd5b6000819050919050565b610c1081610bfd565b8114610c1b57600080fd5b50565b600081359050610c2d81610c07565b92915050565b600060208284031215610c4957610c48610bf3565b5b6000610c5784828501610c1e565b91505092915050565b600073ffffffffffffffffffffffffffffffffffffffff82169050919050565b6000610c8b82610c60565b9050919050565b610c9b81610c80565b82525050565b6000602082019050610cb66000830184610c92565b92915050565b610cc581610c80565b8114610cd057600080fd5b50565b600081359050610ce281610cbc565b92915050565b600080fd5b600080fd5b600080fd5b60008083601f840112610d0d57610d0c610ce8565b5b8235905067ffffffffffffffff811115610d2a57610d29610ced565b5b602083019150836001820283011115610d4657610d45610cf2565b5b9250929050565b600080600080600060808688031215610d6957610d68610bf3565b5b6000610d7788828901610cd3565b9550506020610d8888828901610cd3565b9450506040610d9988828901610c1e565b935050606086013567ffffffffffffffff811115610dba57610db9610bf8565b5b610dc688828901610cf7565b92509250509295509295909350565b60007fffffffff0000000000000000000000000000000000000000000000000000000082169050919050565b610e0a81610dd5565b82525050565b6000602082019050610e256000830184610e01565b92915050565b600080600060608486031215610e4457610e43610bf3565b5b6000610e5286828701610cd3565b9350506020610e6386828701610c1e565b9250506040610e7486828701610c1e565b9150509250925092565b6000819050919050565b6000610ea3610e9e610e9984610c60565b610e7e565b610c60565b9050919050565b6000610eb582610e88565b9050919050565b6000610ec782610eaa565b9050919050565b610ed781610ebc565b82525050565b6000602082019050610ef26000830184610ece565b92915050565b600060208284031215610f0e57610f0d610bf3565b5b6000610f1c84828501610cd3565b91505092915050565b600082825260208201905092915050565b7f4e6f7420796f7572204e46540000000000000000000000000000000000000000600082015250565b6000610f6c600c83610f25565b9150610f7782610f36565b602082019050919050565b60006020820190508181036000830152610f9b81610f5f565b9050919050565b610fab81610bfd565b82525050565b6000606082019050610fc66000830186610c92565b610fd36020830185610c92565b610fe06040830184610fa2565b949350505050565b6000602082019050610ffd6000830184610fa2565b92915050565b60008151905061101281610cbc565b92915050565b60006020828403121561102e5761102d610bf3565b5b600061103c84828501611003565b91505092915050565b7f4e6f74204e4654206f776e657200000000000000000000000000000000000000600082015250565b600061107b600d83610f25565b915061108682611045565b602082019050919050565b600060208201905081810360008301526110aa8161106e565b9050919050565b60006040820190506110c66000830185610c92565b6110d36020830184610c92565b9392505050565b60008115159050919050565b6110ef816110da565b81146110fa57600080fd5b50565b60008151905061110c816110e6565b92915050565b60006020828403121561112857611127610bf3565b5b6000611136848285016110fd565b91505092915050565b7f4e6f7420617070726f7665640000000000000000000000000000000000000000600082015250565b6000611175600c83610f25565b91506111808261113f565b602082019050919050565b600060208201905081810360008301526111a481611168565b9050919050565b60006040820190506111c06000830185610c92565b6111cd6020830184610fa2565b9392505050565b7f4e4654206e6f7420666f756e6400000000000000000000000000000000000000600082015250565b600061120a600d83610f25565b9150611215826111d4565b602082019050919050565b60006020820190508181036000830152611239816111fd565b905091905056fea26469706673582212202d24630f884ff57824ebb64dd95477fcf35a4bfff10a5d26a5577815a4d695b464736f6c634300081c0033",
  "linkReferences": {},
  "deployedLinkReferences": {}
}